:101A1800256400256C6400200025302E32660025E0
:101A2800302E31660025302E30660048656C6C6FAC
:071A380020576F726C64007F
:061ADD0004100040145447
:0A13C2008E088F098B0A8A0B890C34
:1013CC00C3E50864809480501AC3E49509F509E4D8
:1013DC009508F508050CE50C7002050B14F9742D35
:1013EC00120CD085080E85090FE4F50DD3E50F948A
:1013FC0009E50E648094805019E50F2430FFAB0A88
:10140C00050CE50CAA0B7002050B14F9EF120CD0AD
:10141C008013AE0EAF0F7C007D0A120CF48E0E8F73
:10142C000F050D80C7E50D6013150DAE0EAF0F7CCB
:10143C00007D0A120CE28E0E8F0F80E9C3E5099530
:10144C000FF509E508950EF50845097096AB0A05E8
:0F145C000CE50CAA0B7002050B14F9E4020CD07E
:10168C0043B31053B4EF43B32053B4DF43B34053CD
:10169C00B4BF43B38053B47F4390045390FD439045
:1016AC00087F017E007D007C00121810E590C39429
:1016BC00804005121A7080F453B3EF43B41053B347
:1016CC00DF43B42053B3BF43B44053B37F43B48020
:0116DC0022EB
:0A1A660054F042905390FB439002AD
:101A70004390087F027E007D007C00121810539076
:021A8000F7224B
:1019F0008F3F12168C53900FE53F54F04290539056
:101A0000F9121A7053900FE53FC454F0429053906E
:081A1000F9121A7053900F2225
:101A82008F4212168C53900FE542121A6653900F32
:0A1A9200E542C4121A6653900F22B9
:1015DB0053B3F753B3FB53B3FD43B40843B40443C2
:1015EB00B4027F0F7E007D007C001218107F021268
:1015FB0019F07F027E007D007C001218107F011213
:10160B0019F07F017E007D007C001218107F2812DC
:10161B0019F07F017E007D007C001218107F0C12E8
:0D162B0019F07F017E007D007C0002181088
:0F1AAE00740F2DF8E62480FEEF142EFF0219F0BE
:1019C6008B3F8A408941AB3FAA40A941120C8AD37A
:1019D6006480948040130541E5417002054014F986
:0A19E600120C8AFF121A8280DD2223
:101A9C008B3C8A3D893E121AAEAB3CAA3DA93E0254
:021AAC0019C659
:08199B008F228D23AF03AE0281
:1019A300753FFF75401A7541188E428F437B007A4D
:1019B300007924120F037B007A007924AD23AF2230
:0319C300021A9C69
:041638008F228D234D
:10163C00E4F534F535753FFF75401A75411B852768
:10164C0045852644852543852442FB7A007928125A
:10165C000F03E4F534F5357BFF7A1A791F1219C69E
:10166C000535E53570020534C3940CE5346480947B
:10167C008040E47B007A007928AD23AF22021A9CCB
:0418DF008F228D23A4
:1018E300753FFF75401A75411B852745852644853D
:1018F30025438524427B007A007928120F037B005D
:0B1903007A007928AD23AF22021A9C65
:04190E008F228D2374
:10191200753FFF75401A7541218527458526448507
:1019220025438524427B007A007928120F037B002D
:0B1932007A007928AD23AF22021A9C36
:04193D008F228D2345
:10194100753FFF75401A75412785274585264485D2
:1019510025438524427B007A007928120F037B00FE
:0B1961007A007928AD23AF22021A9C07
:04196C008F228D2316
:10197000753FFF75401A75412D852745852644859D
:1019800025438524427B007A007928120F037B00CF
:0B1990007A007928AD23AF22021A9CD8
:10146B0053B3FE43B4011215DB7F011219F07F0257
:10147B007E007D007C001218107F41121A827B0ABD
:10148B007A007D017F0312199BE475278075260D69
:10149B00F525F5247D027F0112163875273E75263A
:1014AB00347525017524007D037F011218DF7BFF46
:1014BB007A1A79337D047F05121A9C75279375264A
:1014CB00187525CB7524417D017F0612190E7527E2
:1014DB00937526187525CB7524417D027F0612194D
:1014EB003D7527937526187525CB7524417D037F94
:1014FB000A12196CB2907F647E007D007C0012187A
:03150B001080F15C
:1018A60053B1BF53B2BF53B17F53B27F7598504304
:1018B6008920438780438E1053C4DFAB07AA06A94D
:1018C60005A8047F407E427D0F7C00120D66EF0462
:0918D600F404F58DD28ED29922A2
:10150E008F178E168D158C1453B1BF53B2BF53B1B6
:10151E007F53B27F75985043878053C4F843C420DD
:10152E00AB17AA16A915A8147F407E427D0F7C002A
:10153E00120D66C374FF9FFF74FF9EFEE49DFDE4D3
:10154E009CFC7808120E098FC6AB17AA16A915A80F
:10155E00147F407E427D0F7C00120D66C374FF9F88
:09156E00FF8FC543C408D2992285
:071ABD003098FDAF99C298BB
:011AC40022FF
:081AC500C2998F993099FD22AE
:101577008F1B8E1A8D198C1853B1FB53B2FB53B3C3
:10158700BF53B4BF75F85075C40853C4DFAB1BAA6B
:101597001AA919A8187F407E427D0F7C00120D669C
:1015A700C374FF9FFF74FF9EFEE49DFDE49CFC78DF
:1015B70008120E098FC6AB1BAA1AA919A8187F40D3
:1015C7007E427D0F7C00120D66C374FF9FFF8FC59F
:0415D70043C40822DF
:071ACD0030F8FDAF9AC2F8EA
:011AD40022EF
:081AD500C2F98F9A30F9FD22DD
:1017C5008F1F8E1E8D1D8C1C538EF7438901D28C65
:1017D500E4FFFEFDFCAB1FAA1EA91DA81CC3120D2C
:1017E500F86025758A7E758CFF308DFDC28DE51FED
:1017F50024FFF51FE51E34FFF51EE51D34FFF51D1D
:0B180500E51C34FFF51C80C8C28C22DB
:101810008F468E458D448C43538EF7438901D28C7D
:10182000E4FFFEFDFCAB46AA45A944A843C3120D44
:10183000F86025758ACA758CFA308DFDC28DE54633
:1018400024FFF546E54534FFF545E54434FFF5440E
:0B185000E54334FFF54380C8C28C2242
:10185B008F5B8E5A8D598C58538EEF438910D28ED5
:10186B00E4FFFEFDFCAB5BAA5AA959A858C3120DA5
:10187B00F86025758BEA758DCB308FFDC28FE55BDC
:10188B0024FFF55BE55A34FFF55AE55934FFF5595A
:0B189B00E55834FFF55880C8C28E22CB
:1016DD008F5F8E5E8D5D8C5C53C9BF53C9DF43C96F
:1016ED0010D2CAE4FFFEFDFCAB5FAA5EA95DA85C4B
:1016FD00C3120DF8602575CC3075CDF830CFFDC215
:10170D00CFE55F24FFF55FE55E34FFF55EE55D3403
:0E171D00FFF55DE55C34FFF55C80C8C2CA22B2
:10172B008F638E628D618C6075C40743C408E4FFC0
:10173B00FEFDFCAB63AA62A961A860C3120DF86041
:10174B002875C52C75C6CFE5C430E4FB53C4EFE553
:10175B006324FFF563E56234FFF562E56134FFF561
:0D176B0061E56034FFF56080C553C4F722CE
:101778008F678E668D658C6475C40743C408E4FF63
:10178800FEFDFCAB67AA66A965A864C3120DF860E4
:101798002875C5D875C6FFE5C430E4FB53C4EFE52A
:1017A8006724FFF567E56634FFF566E56534FFF500
:0D17B80065E56434FFF56480C553C4F72275
:03000000021316D2
:1013160075C7AA75C75575FD5A75C7AA75C7557598
:10132600FDA5787FE4F6D8FD9000007FFF7E03E4FC
:0C133600F0A3DFFCDEFA75816702137D76
:100EA700E553243FF8E6055322783C300702783FA4
:100EB700E475F001120E1C020C8A2000EB7F2ED283
:100EC700008018EF540F2490D43440D4FF30040B23
:100ED700EF24BFB41A0050032461FFE554600215E4
:100EE700540557E5577002055630070D783CE475F1
:100EF700F001120E1CEF020CD0021A3F7403D20746
:100F07008003E4C207F5538B3C8A3D893EE4F554E0
:100F1700F556F557E55460077F20120EE280F57508
:100F270055FFC201C200C202C203C205C206C208FF
:100F3700120EB0FF700D3007057F00120EF3AF578A
:100F4700AE5622B4255FC2D5C204120EB0FF24D01C
:100F5700B40A00501A75F00A785430D50508B6FF60
:100F67000106C6A426F620D5047002D20380D92430
:100F7700CFB41A00EF5004C2E5D2040211E0D20147
:100F870080C6D20080C0D20280BCD2D580BAD2053A
:100F970080B47F20120EE22002077401B55400408E
:100FA700F1120EA7FF120EE2020F1BD208D2068023
:100FB70095120EA7FB120EA7FA120EA7F94A4B704D
:100FC7000679D77A127BFF20022EE554602A7E002D
:100FD7008E82758300120CA360060EEE655570F0C5
:100FE700C2D5EBC0E0EAC0E0E9C0E0EE121240D0A3
:100FF700E0F9D0E0FAD0E0FB120C8AFF60AAEBC060
:10100700E0EAC0E0E9C0E0120EE2D0E02401F9D046
:10101700E03400FAD0E0FBE5550460DCD555D98013
:1010270087D20280A212122360F7E55570010412DD
:101037000800A955600DE555600914F5551212CA47
:10104700EF60F3EA30E702F404C3995077EAF42536
:10105700550430E701E404F555800D12122360C1F1
:10106700EA05552555120800EA7852F630E701E4FB
:10107700255504D5550420050114121240E4C0E09B
:101087001212CA7852E6601320E70714F6120ECA46
:10109700802204F6D0E014C0E07F00120ECAE555A6
:1010A7006007120EC11555800B300503120EC1D013
:1010B700E0020F1BD0E00480C512122360A0E555A3
:1010C700041208007852EAF6E5552005026001048B
:0510D700240412124088
:1010DC0074FF04C0E01212CA120ECAE555200502B4
:1010EC006003120EC1D0E0B555E87F45120ED478DE
:1010FC0052E67F2B30E7047F2DF404C0E0120EE2A1
:10110C00D0E075F00A84C0F0120ECBD0E0120ECBFA
:10111C00020F1B791080027908C206C2088008D21F
:10112C00D5790A8004790AC2D5E555047002F555C3
:10113C00E4FAFDFEFF120EA7FC7B08200113120E31
:10114C00A7FD7B1030000A120EA7FE120EA7FF7B24
:10115C0020EC3382D592D55013C3E43000069FFFA8
:10116C00E49EFEE42001039DFDE49CFCE4CBF8C26C
:10117C0001EC700CCFCECDCCE824F8F870F38017CE
:10118C00C3EF33FFEE33FEED33FDEC33FCEB33FBFF
:10119C00994002FB0FD8E9EB300105F8D0E0C448C8
:1011AC00B201C0E00AEC4D4E4F78207B0070C2EAD1
:1011BC00B5550040BCC0E0121242D0F0D0E0200186
:1011CC0004C4C0E0C4B201C0F0120ECBD0F0D5F014
:1011DC00EB020F1B120E2C0FB853111F580F894C1A
:1011EC000F854211234F112B44112B490F9E431194
:1011FC00315510624610C045102C4712F7500F8D18
:10120C002D0F912E0FB42B0F95230FB22012E02A25
:10121C000F4D4800000FACE555B4FF037555061291
:10122C000EA7FC120EA7FD120EA7FE120EA7FF783A
:10123C004B02082F790AA2D5200314300509B910E6
:10124C00020404B9080104A2D520060250010420AE
:10125C0002689202B554005034C0E07F203003196C
:10126C007F30A20272067205500F121299C202C28E
:10127C0006C205C2087F30800F300503E9C0E012BA
:10128C000EE2300503D0E0F9D0E0B554CC300517B0
:10129C007F30B9100C120EE27F583004077F788033
:1012AC0003B90803120EE23002057F2D020EE27F15
:1012BC00202008F87F2B2006F322920280CF7F009B
:1012CC00B407005005244BF8E6FF22286E756C6CB1
:1012DC002900D201120EA73001F8C201785430D582
:1012EC000108F6020F4D2D50434958120EA7240346
:1012FC00B405004001E49012F293120ED3743A122A
:0A130C000ED3D20375540402111F22
:10080000F920E72824F950037907E4F42402FB18BF
:10081000DBFDE624FB5014E9600DE4F618E604F66F
:0F082000B40A08E4F6D9F57401F60A22C2D5220B
:10082F00ED33EC3392D5FA602AB4FF33EDC2E77B98
:10083F00FF60067A087954E4227A08795D20D5049E
:10084F007A087958224E614E002B494E46002D49A9
:10085F004E4600E47A08F608DAFC7B00740722E8BB
:10086F00C0E0ECC0E0EDC0E0EEC0E0EFC0E0EA7544
:10087F00F010A4CAABF075F04DA42BFBE435F0FCDF
:10088F00EA2410FAEB34C5FBEC34D9FCEDC2E7FFD8
:10089F0075F056A4F42411C5F0F434C58FF0A42AD2
:1008AF00E5F03BE43CF620E714120C00D0E0FFD05B
:1008BF00E0FED0E0FDD0E0FC120B338014F4041204
:1008CF000C00D0E0FFD0E0FED0E0FDD0E0FC120A3B
:1008DF002AD0E0F8E6FAEDD2E7CD33EC332482FBF1
:1008EF00E4C3CF33CFCE33CECD33CD33DBF37B0762
:1008FF0075F00A846004F6081B0AE5F0F6088FF01D
:10090F00740AA4FFACF08EF0740AA42CFEACF05065
:10091F00010C8DF0740AA42CFDE435F0F608DBDE33
:03092F0074072228
:10093200020C75E86480F8E933E83360110460F072
:10094200ED33EC337009E8FCE9FDEAFEEBFF22042B
:1009520060DED3EB9FEA9EE99DE8C2E78CF0C2F726
:1009620095F0400CE8CCF8E9CDF9EACEFAEBCFFBF2
:10097200120C4085D0F05804700320D5B3E80470FF
:10098200075002B2D5020C7F92D5EC0460F7E4CC9A
:10099200C0E0C398F8603B94186008400DD0E0FBBB
:1009A200020C57E4FBFAC9FC8028E830E406E4C9EB
:1009B200FBE4CAFCE830E305E4C9CACBFCE854070F
:1009C2006010F8C3E913F9EA13FAEB13FBEC13FC1A
:1009D200D8F130F52FC3E49CFCEF9BFFEE9AFEEDBD
:1009E20099FDD0E0FBEF4E4D4C701222DB03020C5E
:1009F2007CEC2CFCEF33FFEE33FEED33FDED30E704
:100A0200EB020C57EF2BFFEE3AFEED39FDD0E0FB87
:100A120050130BBB0003020C7FED13FDEE13FEEF30
:080A220013FFEC13FC020C575A
:100A2A00EC4D6011E8497017ED33EC3304600DE4C6
:100A3A00FCFFFEFD22E933E8330470F8020C75125C
:100A4A000C4058046009E4CC24815006285009025D
:100A5A000C7F284003020C7CC0E0EB4A7044B9804A
:100A6A0006D0E0FB020C6BEF4E701CBD8008EBFF5A
:100A7A00EAFEE9FD80EBE98DF0A4FEE5F0020B1336
:100A8A00E9CDF9EAFEEBFFEF89F0A4FCE5F0CE89A7
:100A9A00F0A42EFFE435F0CD89F0A42DFEE435F064
:100AAA008067EF4E7005BD80D780C3EF8BF0A4AC92
:100ABA00F0EE8BF0A42CFCE435F0F8EF8AF0A42CCD
:100ACA00E5F038FCE433CB8DF0A42CFCE5F03BF8E0
:100ADA00EE8AF0A42CFCE5F038F8E433CF89F0A4D0
:100AEA002CFCE5F038CF3400CE89F0A42FFFE5F0D6
:100AFA003EFEE433C98DF0A42EFEE5F039CD8AF02E
:100B0A00A42FFFE5F03EFEE43DFD33D0E0FB5007A5
:100B1A000BBB000F020C7FEC2CFCEF33FFEE33FE15
:060B2A00ED33FD020C5743
:100B3000020C7FEC5D046005E859047003020C753B
:100B4000120C40580460F6EC4860F2EC7004FDFEB4
:100B5000FF22C860DB2481C85009C3986002500698
:100B6000020C7C9850CAF582E9294B4A7005AB8289
:100B7000020C6B75F0007C1A7880C3EF9BEE9AED47
:100B800099400DC3EF9BFFEE9AFEED99FDE842F010
:100B9000DC23ACF0D0E0FFD0E0FED0E0FDAB822063
:100BA000E7101BEB60BAEC2CFCEF33FFEE33FEEDED
:100BB00033FD020C57E803F830E705C0F075F0008C
:100BC000EF2FFFEE33FEED33FD40B830E7C280AAD1
:100BD0003F8000004120000042C80000447A00002D
:100BE000461C400047C35000497424004B189680AF
:100BF0004CBEBC205A0E1BCA6753C21C749DC5AEA6
:100C0000FB60065407601C2323120C2EEB54386043
:100C100009120C1A120C29120A2AECF8EDF9EEFA54
:100C2000EFCB22EB120C2980F1543803241C900BDB
:100C3000D0FE93FC0EEE93FD0EEE930ECE93FF22AC
:100C4000E9D2E7C933E833F892D5EDD2E7CD33ECFA
:070C500033FC5002B2D52273
:100C5700EC30E7100FBF000C0EBE00080DBD0004FE
:100C67000BEB6014A2D5EB13FCED92E7FD2274FFAA
:100C7700FCFDFEFF22E480F8A2D574FF13FC7D8003
:030C8700E480EF17
:1013420002146BE493A3F8E493A34003F68001F242
:1013520008DFF48029E493A3F85407240CC8C333AC
:10136200C4540F4420C8834004F456800146F6DF7B
:10137200E4800B0102040810204080901ADDE47E14
:10138200019360BCA3FF543F30E509541FFEE49370
:10139200A360010ECF54C025E060A840B8E493A337
:1013A200FAE493A3F8E493A3C8C582C8CAC583CA62
:1013B200F0A3C8C582C8CAC583CADFE9DEE780BE1A
:011AE3000002
:100C8A00BB010689828A83E0225002E722BBFE0268
:090C9A00E32289828A83E493229B
:100CA300BB010CE58229F582E5833AF583E0225006
:100CB30006E92582F8E622BBFE06E92582F8E22250
:0D0CC300E58229F582E5833AF583E493226A
:100CD000BB010689828A83F0225002F722BBFE0103
:020CE000F322FD
:100CE200EF8DF0A4A8F0CF8CF0A428CE8DF0A42E26
:020CF200FE22E0
:100CF400C2D5EC30E709B2D5E4C39DFDE49CFCEE1B
:100D040030E715B2D5E4C39FFFE49EFE120E52C332
:100D1400E49DFDE49CFC8003120E5230D507C3E42D
:060D24009FFFE49EFE2289
:100D2A0075F008758200EF2FFFEE33FECD33CDCC80
:100D3A0033CCC58233C5829BED9AEC99E582984003
:100D4A000CF582EE9BFEED9AFDEC99FC0FD5F0D6E0
:100D5A00E4CEFBE4CDFAE4CCF9A88222B800C1B90A
:100D6A000059BA002DEC8BF084CFCECDFCE5F0CB48
:100D7A00F97818EF2FFFEE33FEED33FDEC33FCEB81
:100D8A0033FB10D703994004EB99FB0FD8E5E4F93C
:100D9A00FA227818EF2FFFEE33FEED33FDEC33FC29
:100DAA00C933C910D7059BE99A4007EC9BFCE99A1D
:100DBA00F90FD8E0E4C9FAE4CCFB2275F010EF2F62
:100DCA00FFEE33FEED33FDCC33CCC833C810D70762
:100DDA009BEC9AE899400AED9BFDEC9AFCE899F89D
:0E0DEA000FD5F0DAE4CDFBE4CCFAE4C8F92230
:100DF800EB9FF5F0EA9E42F0E99D42F0E89C45F051
:010E080022C7
:100E0900E8600FECC313FCED13FDEE13FEEF13FFC7
:030E1900D8F122EB
:100E1C00FAE6FB0808E6F925F0F618E6CA3AF622D7
:100E2C00D083D082F8E4937012740193700DA3A355
:100E3C0093F8740193F5828883E473740293686069
:060E4C00EFA3A3A380DF69
:101A3F00EFB40A07740D121A4A740A309811A89954
:101A4F00B8130CC2983098FDA899C298B811F63007
:071A5F0099FDC299F59922DF
:100E5200BC000BBE0029EF8DF084FFADF022E4CC84
:100E6200F875F008EF2FFFEE33FEEC33FCEE9DEC4D
:100E7200984005FCEE9DFE0FD5F0E9E4CEFD22ED93
:100E8200F8F5F0EE8420D21CFEADF075F008EF2FDD
:100E9200FFED33FD4007985006D5F0F222C398FDCE
:050EA2000FD5F0EA226B
:00000001FF
